{
	"_format": "hh-sol-artifact-1",
	"contractName": "DoctorReviews",
	"sourceName": "contracts/reviews.sol",
	"abi": [
		{
			"anonymous": false,
			"inputs": [
				{
					"indexed": true,
					"internalType": "address",
					"name": "doctor",
					"type": "address"
				},
				{
					"indexed": true,
					"internalType": "address",
					"name": "patient",
					"type": "address"
				},
				{
					"indexed": false,
					"internalType": "string",
					"name": "comment",
					"type": "string"
				},
				{
					"indexed": false,
					"internalType": "uint8",
					"name": "rating",
					"type": "uint8"
				}
			],
			"name": "ReviewSubmitted",
			"type": "event"
		},
		{
			"inputs": [
				{
					"internalType": "address",
					"name": "_doctor",
					"type": "address"
				},
				{
					"internalType": "uint256",
					"name": "_index",
					"type": "uint256"
				}
			],
			"name": "getReview",
			"outputs": [
				{
					"components": [
						{
							"internalType": "address",
							"name": "patient",
							"type": "address"
						},
						{
							"internalType": "string",
							"name": "comment",
							"type": "string"
						},
						{
							"internalType": "uint8",
							"name": "rating",
							"type": "uint8"
						}
					],
					"internalType": "struct DoctorReviews.Review",
					"name": "",
					"type": "tuple"
				}
			],
			"stateMutability": "view",
			"type": "function"
		},
		{
			"inputs": [
				{
					"internalType": "address",
					"name": "_doctor",
					"type": "address"
				}
			],
			"name": "getReviewCount",
			"outputs": [
				{
					"internalType": "uint256",
					"name": "",
					"type": "uint256"
				}
			],
			"stateMutability": "view",
			"type": "function"
		},
		{
			"inputs": [
				{
					"internalType": "address",
					"name": "_doctor",
					"type": "address"
				}
			],
			"name": "getReviews",
			"outputs": [
				{
					"components": [
						{
							"internalType": "address",
							"name": "patient",
							"type": "address"
						},
						{
							"internalType": "string",
							"name": "comment",
							"type": "string"
						},
						{
							"internalType": "uint8",
							"name": "rating",
							"type": "uint8"
						}
					],
					"internalType": "struct DoctorReviews.Review[]",
					"name": "",
					"type": "tuple[]"
				}
			],
			"stateMutability": "view",
			"type": "function"
		},
		{
			"inputs": [
				{
					"internalType": "address",
					"name": "_doctor",
					"type": "address"
				},
				{
					"internalType": "string",
					"name": "_comment",
					"type": "string"
				},
				{
					"internalType": "uint8",
					"name": "_rating",
					"type": "uint8"
				}
			],
			"name": "submitReview",
			"outputs": [],
			"stateMutability": "nonpayable",
			"type": "function"
		}
	],
	"bytecode": "0x608060405234801561001057600080fd5b5061111f806100206000396000f3fe608060405234801561001057600080fd5b506004361061004c5760003560e01c80634ef5a0171461005157806351d933e9146100815780636ec78fc6146100b1578063c2d46be9146100e1575b600080fd5b61006b6004803603810190610066919061077d565b6100fd565b6040516100789190610977565b60405180910390f35b61009b600480360381019061009691906109cf565b61029f565b6040516100a89190610a5f565b60405180910390f35b6100cb60048036038101906100c6919061077d565b6104a0565b6040516100d89190610a90565b60405180910390f35b6100fb60048036038101906100f69190610c0c565b6104eb565b005b60606000808373ffffffffffffffffffffffffffffffffffffffff1673ffffffffffffffffffffffffffffffffffffffff168152602001908152602001600020805480602002602001604051908101604052809291908181526020016000905b8282101561029457838290600052602060002090600302016040518060600160405290816000820160009054906101000a900473ffffffffffffffffffffffffffffffffffffffff1673ffffffffffffffffffffffffffffffffffffffff1673ffffffffffffffffffffffffffffffffffffffff1681526020016001820180546101e690610caa565b80601f016020809104026020016040519081016040528092919081815260200182805461021290610caa565b801561025f5780601f106102345761010080835404028352916020019161025f565b820191906000526020600020905b81548152906001019060200180831161024257829003601f168201915b505050505081526020016002820160009054906101000a900460ff1660ff1660ff16815250508152602001906001019061015d565b505050509050919050565b6102a76106d1565b6000808473ffffffffffffffffffffffffffffffffffffffff1673ffffffffffffffffffffffffffffffffffffffff16815260200190815260200160002080549050821061032a576040517f08c379a000000000000000000000000000000000000000000000000000000000815260040161032190610d38565b60405180910390fd5b6000808473ffffffffffffffffffffffffffffffffffffffff1673ffffffffffffffffffffffffffffffffffffffff168152602001908152602001600020828154811061037a57610379610d58565b5b90600052602060002090600302016040518060600160405290816000820160009054906101000a900473ffffffffffffffffffffffffffffffffffffffff1673ffffffffffffffffffffffffffffffffffffffff1673ffffffffffffffffffffffffffffffffffffffff1681526020016001820180546103f990610caa565b80601f016020809104026020016040519081016040528092919081815260200182805461042590610caa565b80156104725780601f1061044757610100808354040283529160200191610472565b820191906000526020600020905b81548152906001019060200180831161045557829003601f168201915b505050505081526020016002820160009054906101000a900460ff1660ff1660ff1681525050905092915050565b60008060008373ffffffffffffffffffffffffffffffffffffffff1673ffffffffffffffffffffffffffffffffffffffff168152602001908152602001600020805490509050919050565b8060018160ff1610158015610504575060058160ff1611155b610543576040517f08c379a000000000000000000000000000000000000000000000000000000000815260040161053a90610dd3565b60405180910390fd5b600060405180606001604052803373ffffffffffffffffffffffffffffffffffffffff1681526020018581526020018460ff1681525090506000808673ffffffffffffffffffffffffffffffffffffffff1673ffffffffffffffffffffffffffffffffffffffff16815260200190815260200160002081908060018154018082558091505060019003906000526020600020906003020160009091909190915060008201518160000160006101000a81548173ffffffffffffffffffffffffffffffffffffffff021916908373ffffffffffffffffffffffffffffffffffffffff160217905550602082015181600101908161063f9190610f9f565b5060408201518160020160006101000a81548160ff021916908360ff16021790555050503373ffffffffffffffffffffffffffffffffffffffff168573ffffffffffffffffffffffffffffffffffffffff167f939d5ef61b37af00da596b5d0f190f29aed2a11c1a429a1dc295bdf90d5ef45e86866040516106c29291906110b9565b60405180910390a35050505050565b6040518060600160405280600073ffffffffffffffffffffffffffffffffffffffff16815260200160608152602001600060ff1681525090565b6000604051905090565b600080fd5b600080fd5b600073ffffffffffffffffffffffffffffffffffffffff82169050919050565b600061074a8261071f565b9050919050565b61075a8161073f565b811461076557600080fd5b50565b60008135905061077781610751565b92915050565b60006020828403121561079357610792610715565b5b60006107a184828501610768565b91505092915050565b600081519050919050565b600082825260208201905092915050565b6000819050602082019050919050565b6107df8161073f565b82525050565b600081519050919050565b600082825260208201905092915050565b60005b8381101561081f578082015181840152602081019050610804565b60008484015250505050565b6000601f19601f8301169050919050565b6000610847826107e5565b61085181856107f0565b9350610861818560208601610801565b61086a8161082b565b840191505092915050565b600060ff82169050919050565b61088b81610875565b82525050565b60006060830160008301516108a960008601826107d6565b50602083015184820360208601526108c1828261083c565b91505060408301516108d66040860182610882565b508091505092915050565b60006108ed8383610891565b905092915050565b6000602082019050919050565b600061090d826107aa565b61091781856107b5565b935083602082028501610929856107c6565b8060005b85811015610965578484038952815161094685826108e1565b9450610951836108f5565b925060208a0199505060018101905061092d565b50829750879550505050505092915050565b600060208201905081810360008301526109918184610902565b905092915050565b6000819050919050565b6109ac81610999565b81146109b757600080fd5b50565b6000813590506109c9816109a3565b92915050565b600080604083850312156109e6576109e5610715565b5b60006109f485828601610768565b9250506020610a05858286016109ba565b9150509250929050565b6000606083016000830151610a2760008601826107d6565b5060208301518482036020860152610a3f828261083c565b9150506040830151610a546040860182610882565b508091505092915050565b60006020820190508181036000830152610a798184610a0f565b905092915050565b610a8a81610999565b82525050565b6000602082019050610aa56000830184610a81565b92915050565b600080fd5b600080fd5b7f4e487b7100000000000000000000000000000000000000000000000000000000600052604160045260246000fd5b610aed8261082b565b810181811067ffffffffffffffff82111715610b0c57610b0b610ab5565b5b80604052505050565b6000610b1f61070b565b9050610b2b8282610ae4565b919050565b600067ffffffffffffffff821115610b4b57610b4a610ab5565b5b610b548261082b565b9050602081019050919050565b82818337600083830152505050565b6000610b83610b7e84610b30565b610b15565b905082815260208101848484011115610b9f57610b9e610ab0565b5b610baa848285610b61565b509392505050565b600082601f830112610bc757610bc6610aab565b5b8135610bd7848260208601610b70565b91505092915050565b610be981610875565b8114610bf457600080fd5b50565b600081359050610c0681610be0565b92915050565b600080600060608486031215610c2557610c24610715565b5b6000610c3386828701610768565b935050602084013567ffffffffffffffff811115610c5457610c5361071a565b5b610c6086828701610bb2565b9250506040610c7186828701610bf7565b9150509250925092565b7f4e487b7100000000000000000000000000000000000000000000000000000000600052602260045260246000fd5b60006002820490506001821680610cc257607f821691505b602082108103610cd557610cd4610c7b565b5b50919050565b600082825260208201905092915050565b7f496e646578206f7574206f6620626f756e647300000000000000000000000000600082015250565b6000610d22601383610cdb565b9150610d2d82610cec565b602082019050919050565b60006020820190508181036000830152610d5181610d15565b9050919050565b7f4e487b7100000000000000000000000000000000000000000000000000000000600052603260045260246000fd5b7f526174696e67206d757374206265206265747765656e203120616e6420350000600082015250565b6000610dbd601e83610cdb565b9150610dc882610d87565b602082019050919050565b60006020820190508181036000830152610dec81610db0565b9050919050565b60008190508160005260206000209050919050565b60006020601f8301049050919050565b600082821b905092915050565b600060088302610e557fffffffffffffffffffffffffffffffffffffffffffffffffffffffffffffffff82610e18565b610e5f8683610e18565b95508019841693508086168417925050509392505050565b6000819050919050565b6000610e9c610e97610e9284610999565b610e77565b610999565b9050919050565b6000819050919050565b610eb683610e81565b610eca610ec282610ea3565b848454610e25565b825550505050565b600090565b610edf610ed2565b610eea818484610ead565b505050565b5b81811015610f0e57610f03600082610ed7565b600181019050610ef0565b5050565b601f821115610f5357610f2481610df3565b610f2d84610e08565b81016020851015610f3c578190505b610f50610f4885610e08565b830182610eef565b50505b505050565b600082821c905092915050565b6000610f7660001984600802610f58565b1980831691505092915050565b6000610f8f8383610f65565b9150826002028217905092915050565b610fa8826107e5565b67ffffffffffffffff811115610fc157610fc0610ab5565b5b610fcb8254610caa565b610fd6828285610f12565b600060209050601f8311600181146110095760008415610ff7578287015190505b6110018582610f83565b865550611069565b601f19841661101786610df3565b60005b8281101561103f5784890151825560018201915060208501945060208101905061101a565b8683101561105c5784890151611058601f891682610f65565b8355505b6001600288020188555050505b505050505050565b600061107c826107e5565b6110868185610cdb565b9350611096818560208601610801565b61109f8161082b565b840191505092915050565b6110b381610875565b82525050565b600060408201905081810360008301526110d38185611071565b90506110e260208301846110aa565b939250505056fea2646970667358221220dc8bdc7f0073dd514d9c8245f776ca2b34469234bb51951993c03e26b353589664736f6c63430008170033",
	"linkReferences": {},
	"deployedLinkReferences": {}
}